{
  "address": "0xC8aE2A55bC4Bf3280a38C76077A43D4D4a086272",
  "abi": [
    {
      "inputs": [
        {
          "internalType": "address",
          "name": "_pair",
          "type": "address"
        },
        {
          "internalType": "address",
          "name": "_token",
          "type": "address"
        },
        {
          "internalType": "uint256",
          "name": "_amountIn",
          "type": "uint256"
        }
      ],
      "name": "consult",
      "outputs": [
        {
          "internalType": "uint144",
          "name": "amountOut",
          "type": "uint144"
        }
      ],
      "stateMutability": "view",
      "type": "function"
    },
    {
      "inputs": [
        {
          "internalType": "contract IUniswapV2Pair",
          "name": "_pair",
          "type": "address"
        }
      ],
      "name": "createAndUpdateOracle",
      "outputs": [],
      "stateMutability": "nonpayable",
      "type": "function"
    },
    {
      "inputs": [
        {
          "internalType": "contract IUniswapV2Pair",
          "name": "_pair",
          "type": "address"
        }
      ],
      "name": "createOracle",
      "outputs": [],
      "stateMutability": "nonpayable",
      "type": "function"
    },
    {
      "inputs": [
        {
          "internalType": "address",
          "name": "",
          "type": "address"
        }
      ],
      "name": "oracleOfPair",
      "outputs": [
        {
          "internalType": "address",
          "name": "token0",
          "type": "address"
        },
        {
          "internalType": "address",
          "name": "token1",
          "type": "address"
        },
        {
          "internalType": "uint256",
          "name": "price0CumulativeLast",
          "type": "uint256"
        },
        {
          "internalType": "uint256",
          "name": "price1CumulativeLast",
          "type": "uint256"
        },
        {
          "internalType": "uint32",
          "name": "blockTimestampLast",
          "type": "uint32"
        },
        {
          "components": [
            {
              "internalType": "uint224",
              "name": "_x",
              "type": "uint224"
            }
          ],
          "internalType": "struct FixedPoint.uq112x112",
          "name": "price0Average",
          "type": "tuple"
        },
        {
          "components": [
            {
              "internalType": "uint224",
              "name": "_x",
              "type": "uint224"
            }
          ],
          "internalType": "struct FixedPoint.uq112x112",
          "name": "price1Average",
          "type": "tuple"
        }
      ],
      "stateMutability": "view",
      "type": "function"
    },
    {
      "inputs": [
        {
          "internalType": "contract IUniswapV2Pair",
          "name": "_pair",
          "type": "address"
        }
      ],
      "name": "updateOracle",
      "outputs": [],
      "stateMutability": "nonpayable",
      "type": "function"
    }
  ],
  "transactionHash": "0x1060be59be07d5fefe8293038d0f09dd5ef7f076217376a17a1812cc54daffe4",
  "args": [],
  "numDeployments": 1,
  "solcInputHash": "2d3c41706fdfbbce81f6764fe3896be6",
  "bytecode": "0x608060405234801561001057600080fd5b50610f09806100206000396000f3fe608060405234801561001057600080fd5b50600436106100575760003560e01c80631cb44dfc1461005c578063517f63fb14610071578063636cfa0c1461014a578063bb24a44914610180578063dc57e0cc14610193575b600080fd5b61006f61006a366004610cdf565b6101a6565b005b6100f061007f366004610cdf565b60006020818152918152604090819020805460018201546002830154600384015460048501548651808901885260058701546001600160e01b0390811682528851998a0190985260069096015490961687526001600160a01b03938416969290931694909363ffffffff9091169187565b604080516001600160a01b03988916815297909616602088015294860193909352606085019190915263ffffffff166080840152516001600160e01b0390811660a084015290511660c082015260e0015b60405180910390f35b61015d610158366004610d03565b61034e565b60405171ffffffffffffffffffffffffffffffffffff9091168152602001610141565b61006f61018e366004610cdf565b6104f7565b61006f6101a1366004610cdf565b6105ad565b6001600160a01b03808216600081815260208181526040808320815160e08101835281548716815260018201549096168684015260028101548683015260038101546060870152600481015463ffffffff1660808701528151808401835260058201546001600160e01b03908116825260a08801919091528251808501909352600682015416825260c0860191909152928252819052808061024786610984565b925092509250600085608001518261025f9190610d5a565b90508063ffffffff166000036102785750505050505050565b60405180602001604052808263ffffffff1688604001518761029a9190610d7f565b6102a49190610dac565b6001600160e01b0390811690915290516005870180546001600160e01b0319169190921617905560408051602081019091526060870151819063ffffffff8416906102ef9087610d7f565b6102f99190610dac565b6001600160e01b0390811690915290516006870180546001600160e01b0319169190921617905550600284019290925560038301556004909101805463ffffffff191663ffffffff9092169190911790555050565b6001600160a01b03808416600090815260208181526040808320815160e08101835281548616815260018201549095168584015260028101548583015260038101546060860152600481015463ffffffff908116608087019081528351808601855260058401546001600160e01b03908116825260a08901919091528451958601909452600690920154909216835260c085019290925290519192911682036104365760405162461bcd60e51b8152602060048201526015602482015274151dd85c13dc9858db194e88139bdd08199bdd5b99605a1b60448201526064015b60405180910390fd5b80600001516001600160a01b0316846001600160a01b0316036104745760a081015161046d906104669085610b57565b5160701c90565b91506104ef565b80602001516001600160a01b0316846001600160a01b0316146104d95760405162461bcd60e51b815260206004820152601960248201527f547761704f7261636c653a20496e76616c696420746f6b656e00000000000000604482015260640161042d565b60c08101516104ec906104669085610b57565b91505b509392505050565b6001600160a01b03808216600090815260208181526040808320815160e08101835281548616815260018201549095168584015260028101548583015260038101546060860152600481015463ffffffff908116608087019081528351808601855260058401546001600160e01b03908116825260a08901919091528451958601909452600690920154909216835260c085019290925290511690036105a0576105a0826105ad565b6105a9826101a6565b5050565b6001600160a01b03811660009081526020819052604090206004015463ffffffff161561061c5760405162461bcd60e51b815260206004820152601b60248201527f547761704f7261636c653a20416c726561647920637265617465640000000000604482015260640161042d565b6000816001600160a01b0316630dfe16816040518163ffffffff1660e01b8152600401602060405180830381865afa15801561065c573d6000803e3d6000fd5b505050506040513d601f19601f820116820180604052508101906106809190610dc0565b90506000826001600160a01b031663d21220a76040518163ffffffff1660e01b8152600401602060405180830381865afa1580156106c2573d6000803e3d6000fd5b505050506040513d601f19601f820116820180604052508101906106e69190610dc0565b9050600080846001600160a01b0316630902f1ac6040518163ffffffff1660e01b8152600401606060405180830381865afa158015610729573d6000803e3d6000fd5b505050506040513d601f19601f8201168201806040525081019061074d9190610df9565b5090925090506001600160701b0382161580159061077357506001600160701b03811615155b6107bf5760405162461bcd60e51b815260206004820152601760248201527f547761704f7261636c653a204e6f207265736572766573000000000000000000604482015260640161042d565b60008060006107cd88610984565b9250925092506040518060e00160405280886001600160a01b03168152602001876001600160a01b031681526020018481526020018381526020018263ffffffff168152602001604051806020016040528060006001600160e01b03168152508152602001604051806020016040528060006001600160e01b03168152508152506000808a6001600160a01b03166001600160a01b0316815260200190815260200160002060008201518160000160006101000a8154816001600160a01b0302191690836001600160a01b0316021790555060208201518160010160006101000a8154816001600160a01b0302191690836001600160a01b03160217905550604082015181600201556060820151816003015560808201518160040160006101000a81548163ffffffff021916908363ffffffff16021790555060a08201518160050160008201518160000160006101000a8154816001600160e01b0302191690836001600160e01b03160217905550505060c08201518160060160008201518160000160006101000a8154816001600160e01b0302191690836001600160e01b0316021790555050509050505050505050505050565b6000806000610991610c01565b9050836001600160a01b0316635909c0d56040518163ffffffff1660e01b8152600401602060405180830381865afa1580156109d1573d6000803e3d6000fd5b505050506040513d601f19601f820116820180604052508101906109f59190610e49565b9250836001600160a01b0316635a3d54936040518163ffffffff1660e01b8152600401602060405180830381865afa158015610a35573d6000803e3d6000fd5b505050506040513d601f19601f82011682018060405250810190610a599190610e49565b91506000806000866001600160a01b0316630902f1ac6040518163ffffffff1660e01b8152600401606060405180830381865afa158015610a9e573d6000803e3d6000fd5b505050506040513d601f19601f82011682018060405250810190610ac29190610df9565b9250925092508363ffffffff168163ffffffff1614610b4d576000610ae78286610d5a565b90508063ffffffff16610afa8486610c17565b51610b0e91906001600160e01b0316610e62565b610b189088610e81565b96508063ffffffff16610b2b8585610c17565b51610b3f91906001600160e01b0316610e62565b610b499087610e81565b9550505b5050509193909250565b6040805160208101909152600081526000821580610b94575083516001600160e01b031683610b868183610e62565b9250610b929083610dac565b145b610bec5760405162461bcd60e51b815260206004820152602360248201527f4669786564506f696e743a204d554c5449504c49434154494f4e5f4f564552466044820152624c4f5760e81b606482015260840161042d565b60408051602081019091529081529392505050565b6000610c1264010000000042610e99565b905090565b6040805160208101909152600081526000826001600160701b031611610c7f5760405162461bcd60e51b815260206004820152601760248201527f4669786564506f696e743a204449565f42595f5a45524f000000000000000000604482015260640161042d565b604080516020810190915280610cb56001600160701b0385166dffffffffffffffffffffffffffff60701b607088901b16610ead565b6001600160e01b031690529392505050565b6001600160a01b0381168114610cdc57600080fd5b50565b600060208284031215610cf157600080fd5b8135610cfc81610cc7565b9392505050565b600080600060608486031215610d1857600080fd5b8335610d2381610cc7565b92506020840135610d3381610cc7565b929592945050506040919091013590565b634e487b7160e01b600052601160045260246000fd5b600063ffffffff83811690831681811015610d7757610d77610d44565b039392505050565b600082821015610d9157610d91610d44565b500390565b634e487b7160e01b600052601260045260246000fd5b600082610dbb57610dbb610d96565b500490565b600060208284031215610dd257600080fd5b8151610cfc81610cc7565b80516001600160701b0381168114610df457600080fd5b919050565b600080600060608486031215610e0e57600080fd5b610e1784610ddd565b9250610e2560208501610ddd565b9150604084015163ffffffff81168114610e3e57600080fd5b809150509250925092565b600060208284031215610e5b57600080fd5b5051919050565b6000816000190483118215151615610e7c57610e7c610d44565b500290565b60008219821115610e9457610e94610d44565b500190565b600082610ea857610ea8610d96565b500690565b60006001600160e01b0383811680610ec757610ec7610d96565b9216919091049291505056fea264697066735822122013542e1ad51533f81803d67dd4a880934aab3572078431a4ff061e0a51e97c4f64736f6c634300080d0033",
  "devdoc": {
    "kind": "dev",
    "methods": {},
    "version": 1
  },
  "userdoc": {
    "kind": "user",
    "methods": {},
    "version": 1
  },
  "storageLayout": {
    "storage": [
      {
        "astId": 31,
        "contract": "contracts/TwapOracle.sol:TwapOracle",
        "label": "oracleOfPair",
        "offset": 0,
        "slot": "0",
        "type": "t_mapping(t_address,t_struct(Oracle)26_storage)"
      }
    ],
    "types": {
      "t_address": {
        "encoding": "inplace",
        "label": "address",
        "numberOfBytes": "20"
      },
      "t_mapping(t_address,t_struct(Oracle)26_storage)": {
        "encoding": "mapping",
        "key": "t_address",
        "label": "mapping(address => struct TwapOracle.Oracle)",
        "numberOfBytes": "32",
        "value": "t_struct(Oracle)26_storage"
      },
      "t_struct(Oracle)26_storage": {
        "encoding": "inplace",
        "label": "struct TwapOracle.Oracle",
        "members": [
          {
            "astId": 11,
            "contract": "contracts/TwapOracle.sol:TwapOracle",
            "label": "token0",
            "offset": 0,
            "slot": "0",
            "type": "t_address"
          },
          {
            "astId": 13,
            "contract": "contracts/TwapOracle.sol:TwapOracle",
            "label": "token1",
            "offset": 0,
            "slot": "1",
            "type": "t_address"
          },
          {
            "astId": 15,
            "contract": "contracts/TwapOracle.sol:TwapOracle",
            "label": "price0CumulativeLast",
            "offset": 0,
            "slot": "2",
            "type": "t_uint256"
          },
          {
            "astId": 17,
            "contract": "contracts/TwapOracle.sol:TwapOracle",
            "label": "price1CumulativeLast",
            "offset": 0,
            "slot": "3",
            "type": "t_uint256"
          },
          {
            "astId": 19,
            "contract": "contracts/TwapOracle.sol:TwapOracle",
            "label": "blockTimestampLast",
            "offset": 0,
            "slot": "4",
            "type": "t_uint32"
          },
          {
            "astId": 22,
            "contract": "contracts/TwapOracle.sol:TwapOracle",
            "label": "price0Average",
            "offset": 0,
            "slot": "5",
            "type": "t_struct(uq112x112)573_storage"
          },
          {
            "astId": 25,
            "contract": "contracts/TwapOracle.sol:TwapOracle",
            "label": "price1Average",
            "offset": 0,
            "slot": "6",
            "type": "t_struct(uq112x112)573_storage"
          }
        ],
        "numberOfBytes": "224"
      },
      "t_struct(uq112x112)573_storage": {
        "encoding": "inplace",
        "label": "struct FixedPoint.uq112x112",
        "members": [
          {
            "astId": 572,
            "contract": "contracts/TwapOracle.sol:TwapOracle",
            "label": "_x",
            "offset": 0,
            "slot": "0",
            "type": "t_uint224"
          }
        ],
        "numberOfBytes": "32"
      },
      "t_uint224": {
        "encoding": "inplace",
        "label": "uint224",
        "numberOfBytes": "28"
      },
      "t_uint256": {
        "encoding": "inplace",
        "label": "uint256",
        "numberOfBytes": "32"
      },
      "t_uint32": {
        "encoding": "inplace",
        "label": "uint32",
        "numberOfBytes": "4"
      }
    }
  }
}